{
  "contractName": "CHENDollas",
  "abi": [
    {
      "inputs": [],
      "stateMutability": "nonpayable",
      "type": "constructor"
    },
    {
      "anonymous": false,
      "inputs": [
        {
          "indexed": true,
          "internalType": "address",
          "name": "owner",
          "type": "address"
        },
        {
          "indexed": true,
          "internalType": "address",
          "name": "spender",
          "type": "address"
        },
        {
          "indexed": false,
          "internalType": "uint256",
          "name": "value",
          "type": "uint256"
        }
      ],
      "name": "Approval",
      "type": "event"
    },
    {
      "anonymous": false,
      "inputs": [
        {
          "indexed": true,
          "internalType": "address",
          "name": "to",
          "type": "address"
        },
        {
          "indexed": false,
          "internalType": "uint256",
          "name": "amount",
          "type": "uint256"
        }
      ],
      "name": "Drip",
      "type": "event"
    },
    {
      "anonymous": false,
      "inputs": [
        {
          "indexed": true,
          "internalType": "address",
          "name": "previousOwner",
          "type": "address"
        },
        {
          "indexed": true,
          "internalType": "address",
          "name": "newOwner",
          "type": "address"
        }
      ],
      "name": "OwnershipTransferred",
      "type": "event"
    },
    {
      "anonymous": false,
      "inputs": [
        {
          "indexed": false,
          "internalType": "address",
          "name": "account",
          "type": "address"
        }
      ],
      "name": "Paused",
      "type": "event"
    },
    {
      "anonymous": false,
      "inputs": [
        {
          "indexed": true,
          "internalType": "address",
          "name": "from",
          "type": "address"
        },
        {
          "indexed": true,
          "internalType": "address",
          "name": "to",
          "type": "address"
        },
        {
          "indexed": false,
          "internalType": "uint256",
          "name": "value",
          "type": "uint256"
        }
      ],
      "name": "Transfer",
      "type": "event"
    },
    {
      "anonymous": false,
      "inputs": [
        {
          "indexed": false,
          "internalType": "address",
          "name": "account",
          "type": "address"
        }
      ],
      "name": "Unpaused",
      "type": "event"
    },
    {
      "inputs": [
        {
          "internalType": "address",
          "name": "owner",
          "type": "address"
        },
        {
          "internalType": "address",
          "name": "spender",
          "type": "address"
        }
      ],
      "name": "allowance",
      "outputs": [
        {
          "internalType": "uint256",
          "name": "",
          "type": "uint256"
        }
      ],
      "stateMutability": "view",
      "type": "function",
      "constant": true
    },
    {
      "inputs": [
        {
          "internalType": "address",
          "name": "spender",
          "type": "address"
        },
        {
          "internalType": "uint256",
          "name": "amount",
          "type": "uint256"
        }
      ],
      "name": "approve",
      "outputs": [
        {
          "internalType": "bool",
          "name": "",
          "type": "bool"
        }
      ],
      "stateMutability": "nonpayable",
      "type": "function"
    },
    {
      "inputs": [
        {
          "internalType": "address",
          "name": "account",
          "type": "address"
        }
      ],
      "name": "balanceOf",
      "outputs": [
        {
          "internalType": "uint256",
          "name": "",
          "type": "uint256"
        }
      ],
      "stateMutability": "view",
      "type": "function",
      "constant": true
    },
    {
      "inputs": [
        {
          "internalType": "uint256",
          "name": "amount",
          "type": "uint256"
        }
      ],
      "name": "burn",
      "outputs": [],
      "stateMutability": "nonpayable",
      "type": "function"
    },
    {
      "inputs": [
        {
          "internalType": "address",
          "name": "account",
          "type": "address"
        },
        {
          "internalType": "uint256",
          "name": "amount",
          "type": "uint256"
        }
      ],
      "name": "burnFrom",
      "outputs": [],
      "stateMutability": "nonpayable",
      "type": "function"
    },
    {
      "inputs": [],
      "name": "decimals",
      "outputs": [
        {
          "internalType": "uint8",
          "name": "",
          "type": "uint8"
        }
      ],
      "stateMutability": "view",
      "type": "function",
      "constant": true
    },
    {
      "inputs": [
        {
          "internalType": "address",
          "name": "spender",
          "type": "address"
        },
        {
          "internalType": "uint256",
          "name": "subtractedValue",
          "type": "uint256"
        }
      ],
      "name": "decreaseAllowance",
      "outputs": [
        {
          "internalType": "bool",
          "name": "",
          "type": "bool"
        }
      ],
      "stateMutability": "nonpayable",
      "type": "function"
    },
    {
      "inputs": [
        {
          "internalType": "address",
          "name": "spender",
          "type": "address"
        },
        {
          "internalType": "uint256",
          "name": "addedValue",
          "type": "uint256"
        }
      ],
      "name": "increaseAllowance",
      "outputs": [
        {
          "internalType": "bool",
          "name": "",
          "type": "bool"
        }
      ],
      "stateMutability": "nonpayable",
      "type": "function"
    },
    {
      "inputs": [],
      "name": "name",
      "outputs": [
        {
          "internalType": "string",
          "name": "",
          "type": "string"
        }
      ],
      "stateMutability": "view",
      "type": "function",
      "constant": true
    },
    {
      "inputs": [],
      "name": "owner",
      "outputs": [
        {
          "internalType": "address",
          "name": "",
          "type": "address"
        }
      ],
      "stateMutability": "view",
      "type": "function",
      "constant": true
    },
    {
      "inputs": [],
      "name": "paused",
      "outputs": [
        {
          "internalType": "bool",
          "name": "",
          "type": "bool"
        }
      ],
      "stateMutability": "view",
      "type": "function",
      "constant": true
    },
    {
      "inputs": [],
      "name": "renounceOwnership",
      "outputs": [],
      "stateMutability": "nonpayable",
      "type": "function"
    },
    {
      "inputs": [],
      "name": "symbol",
      "outputs": [
        {
          "internalType": "string",
          "name": "",
          "type": "string"
        }
      ],
      "stateMutability": "view",
      "type": "function",
      "constant": true
    },
    {
      "inputs": [],
      "name": "totalSupply",
      "outputs": [
        {
          "internalType": "uint256",
          "name": "",
          "type": "uint256"
        }
      ],
      "stateMutability": "view",
      "type": "function",
      "constant": true
    },
    {
      "inputs": [
        {
          "internalType": "address",
          "name": "recipient",
          "type": "address"
        },
        {
          "internalType": "uint256",
          "name": "amount",
          "type": "uint256"
        }
      ],
      "name": "transfer",
      "outputs": [
        {
          "internalType": "bool",
          "name": "",
          "type": "bool"
        }
      ],
      "stateMutability": "nonpayable",
      "type": "function"
    },
    {
      "inputs": [
        {
          "internalType": "address",
          "name": "sender",
          "type": "address"
        },
        {
          "internalType": "address",
          "name": "recipient",
          "type": "address"
        },
        {
          "internalType": "uint256",
          "name": "amount",
          "type": "uint256"
        }
      ],
      "name": "transferFrom",
      "outputs": [
        {
          "internalType": "bool",
          "name": "",
          "type": "bool"
        }
      ],
      "stateMutability": "nonpayable",
      "type": "function"
    },
    {
      "inputs": [
        {
          "internalType": "address",
          "name": "newOwner",
          "type": "address"
        }
      ],
      "name": "transferOwnership",
      "outputs": [],
      "stateMutability": "nonpayable",
      "type": "function"
    },
    {
      "inputs": [],
      "name": "pause",
      "outputs": [],
      "stateMutability": "nonpayable",
      "type": "function"
    },
    {
      "inputs": [],
      "name": "unpause",
      "outputs": [],
      "stateMutability": "nonpayable",
      "type": "function"
    },
    {
      "inputs": [
        {
          "internalType": "address",
          "name": "to",
          "type": "address"
        },
        {
          "internalType": "uint256",
          "name": "amount",
          "type": "uint256"
        }
      ],
      "name": "mint",
      "outputs": [],
      "stateMutability": "nonpayable",
      "type": "function"
    },
    {
      "inputs": [],
      "name": "drip",
      "outputs": [],
      "stateMutability": "nonpayable",
      "type": "function"
    }
  ],
  "bytecode": "0x60806040523480156200001157600080fd5b506040518060400160405280600b81526020017f4348454e20446f6c6c61730000000000000000000000000000000000000000008152506040518060400160405280600481526020017f4348454e00000000000000000000000000000000000000000000000000000000815250816003908051906020019062000096929190620003f7565b508060049080519060200190620000af929190620003f7565b5050506000600560006101000a81548160ff0219169083151502179055506000620000df620001f560201b60201c565b905080600560016101000a81548173ffffffffffffffffffffffffffffffffffffffff021916908373ffffffffffffffffffffffffffffffffffffffff1602179055508073ffffffffffffffffffffffffffffffffffffffff16600073ffffffffffffffffffffffffffffffffffffffff167f8be0079c531659141344cd1fd0a4f28419497f9722a3daafe3b4186f6b6457e060405160405180910390a350620001bc3362000193620001fd60201b60201c565b600a620001a1919062000666565b611388620001b09190620007a3565b6200020660201b60201c565b620001cc620001fd60201b60201c565b600a620001da919062000666565b6103e8620001e99190620007a3565b600681905550620008bc565b600033905090565b60006012905090565b600073ffffffffffffffffffffffffffffffffffffffff168273ffffffffffffffffffffffffffffffffffffffff16141562000279576040517f08c379a000000000000000000000000000000000000000000000000000000000815260040162000270906200055e565b60405180910390fd5b6200028d600083836200036b60201b60201c565b8060026000828254620002a19190620005ae565b92505081905550806000808473ffffffffffffffffffffffffffffffffffffffff1673ffffffffffffffffffffffffffffffffffffffff1681526020019081526020016000206000828254620002f89190620005ae565b925050819055508173ffffffffffffffffffffffffffffffffffffffff16600073ffffffffffffffffffffffffffffffffffffffff167fddf252ad1be2c89b69c2b068fc378daa952ba7f163c4a11628f55a4df523b3ef836040516200035f919062000580565b60405180910390a35050565b6200037b620003db60201b60201c565b15620003be576040517f08c379a0000000000000000000000000000000000000000000000000000000008152600401620003b5906200053c565b60405180910390fd5b620003d6838383620003f260201b62000eb91760201c565b505050565b6000600560009054906101000a900460ff16905090565b505050565b82805462000405906200081b565b90600052602060002090601f01602090048101928262000429576000855562000475565b82601f106200044457805160ff191683800117855562000475565b8280016001018555821562000475579182015b828111156200047457825182559160200191906001019062000457565b5b50905062000484919062000488565b5090565b5b80821115620004a357600081600090555060010162000489565b5090565b6000620004b66010836200059d565b91507f5061757361626c653a20706175736564000000000000000000000000000000006000830152602082019050919050565b6000620004f8601f836200059d565b91507f45524332303a206d696e7420746f20746865207a65726f2061646472657373006000830152602082019050919050565b620005368162000804565b82525050565b600060208201905081810360008301526200055781620004a7565b9050919050565b600060208201905081810360008301526200057981620004e9565b9050919050565b60006020820190506200059760008301846200052b565b92915050565b600082825260208201905092915050565b6000620005bb8262000804565b9150620005c88362000804565b9250827fffffffffffffffffffffffffffffffffffffffffffffffffffffffffffffffff038211156200060057620005ff62000851565b5b828201905092915050565b6000808291508390505b60018511156200065d5780860481111562000635576200063462000851565b5b6001851615620006455780820291505b80810290506200065585620008af565b945062000615565b94509492505050565b6000620006738262000804565b915062000680836200080e565b9250620006af7fffffffffffffffffffffffffffffffffffffffffffffffffffffffffffffffff8484620006b7565b905092915050565b600082620006c957600190506200079c565b81620006d957600090506200079c565b8160018114620006f25760028114620006fd5762000733565b60019150506200079c565b60ff84111562000712576200071162000851565b5b8360020a9150848211156200072c576200072b62000851565b5b506200079c565b5060208310610133831016604e8410600b84101617156200076d5782820a90508381111562000767576200076662000851565b5b6200079c565b6200077c84848460016200060b565b9250905081840481111562000796576200079562000851565b5b81810290505b9392505050565b6000620007b08262000804565b9150620007bd8362000804565b9250817fffffffffffffffffffffffffffffffffffffffffffffffffffffffffffffffff0483118215151615620007f957620007f862000851565b5b828202905092915050565b6000819050919050565b600060ff82169050919050565b600060028204905060018216806200083457607f821691505b602082108114156200084b576200084a62000880565b5b50919050565b7f4e487b7100000000000000000000000000000000000000000000000000000000600052601160045260246000fd5b7f4e487b7100000000000000000000000000000000000000000000000000000000600052602260045260246000fd5b60008160011c9050919050565b61239080620008cc6000396000f3fe608060405234801561001057600080fd5b50600436106101375760003560e01c806370a08231116100b857806395d89b411161007c57806395d89b41146103045780639f678cca14610322578063a457c2d71461032c578063a9059cbb1461035c578063dd62ed3e1461038c578063f2fde38b146103bc57610137565b806370a0823114610286578063715018a6146102b657806379cc6790146102c05780638456cb59146102dc5780638da5cb5b146102e657610137565b806339509351116100ff57806339509351146101f65780633f4ba83a1461022657806340c10f191461023057806342966c681461024c5780635c975abb1461026857610137565b806306fdde031461013c578063095ea7b31461015a57806318160ddd1461018a57806323b872dd146101a8578063313ce567146101d8575b600080fd5b6101446103d8565b6040516101519190611f25565b60405180910390f35b610174600480360381019061016f91906118b3565b61046a565b6040516101819190611f0a565b60405180910390f35b610192610488565b60405161019f9190612127565b60405180910390f35b6101c260048036038101906101bd9190611864565b610492565b6040516101cf9190611f0a565b60405180910390f35b6101e0610593565b6040516101ed9190612142565b60405180910390f35b610210600480360381019061020b91906118b3565b61059c565b60405161021d9190611f0a565b60405180910390f35b61022e610648565b005b61024a600480360381019061024591906118b3565b6106ce565b005b610266600480360381019061026191906118ef565b610758565b005b61027061076c565b60405161027d9190611f0a565b60405180910390f35b6102a0600480360381019061029b91906117ff565b610783565b6040516102ad9190612127565b60405180910390f35b6102be6107cb565b005b6102da60048036038101906102d591906118b3565b610908565b005b6102e461098c565b005b6102ee610a12565b6040516102fb9190611eef565b60405180910390f35b61030c610a3c565b6040516103199190611f25565b60405180910390f35b61032a610ace565b005b610346600480360381019061034191906118b3565b610b74565b6040516103539190611f0a565b60405180910390f35b610376600480360381019061037191906118b3565b610c68565b6040516103839190611f0a565b60405180910390f35b6103a660048036038101906103a19190611828565b610c86565b6040516103b39190612127565b60405180910390f35b6103d660048036038101906103d191906117ff565b610d0d565b005b6060600380546103e79061228b565b80601f01602080910402602001604051908101604052809291908181526020018280546104139061228b565b80156104605780601f1061043557610100808354040283529160200191610460565b820191906000526020600020905b81548152906001019060200180831161044357829003601f168201915b5050505050905090565b600061047e610477610ebe565b8484610ec6565b6001905092915050565b6000600254905090565b600061049f848484611091565b6000600160008673ffffffffffffffffffffffffffffffffffffffff1673ffffffffffffffffffffffffffffffffffffffff16815260200190815260200160002060006104ea610ebe565b73ffffffffffffffffffffffffffffffffffffffff1673ffffffffffffffffffffffffffffffffffffffff1681526020019081526020016000205490508281101561056a576040517f08c379a000000000000000000000000000000000000000000000000000000000815260040161056190612027565b60405180910390fd5b61058785610576610ebe565b858461058291906121cf565b610ec6565b60019150509392505050565b60006012905090565b600061063e6105a9610ebe565b8484600160006105b7610ebe565b73ffffffffffffffffffffffffffffffffffffffff1673ffffffffffffffffffffffffffffffffffffffff16815260200190815260200160002060008873ffffffffffffffffffffffffffffffffffffffff1673ffffffffffffffffffffffffffffffffffffffff168152602001908152602001600020546106399190612179565b610ec6565b6001905092915050565b610650610ebe565b73ffffffffffffffffffffffffffffffffffffffff1661066e610a12565b73ffffffffffffffffffffffffffffffffffffffff16146106c4576040517f08c379a00000000000000000000000000000000000000000000000000000000081526004016106bb90612047565b60405180910390fd5b6106cc611310565b565b6106d6610ebe565b73ffffffffffffffffffffffffffffffffffffffff166106f4610a12565b73ffffffffffffffffffffffffffffffffffffffff161461074a576040517f08c379a000000000000000000000000000000000000000000000000000000000815260040161074190612047565b60405180910390fd5b61075482826113b2565b5050565b610769610763610ebe565b82611506565b50565b6000600560009054906101000a900460ff16905090565b60008060008373ffffffffffffffffffffffffffffffffffffffff1673ffffffffffffffffffffffffffffffffffffffff168152602001908152602001600020549050919050565b6107d3610ebe565b73ffffffffffffffffffffffffffffffffffffffff166107f1610a12565b73ffffffffffffffffffffffffffffffffffffffff1614610847576040517f08c379a000000000000000000000000000000000000000000000000000000000815260040161083e90612047565b60405180910390fd5b600073ffffffffffffffffffffffffffffffffffffffff16600560019054906101000a900473ffffffffffffffffffffffffffffffffffffffff1673ffffffffffffffffffffffffffffffffffffffff167f8be0079c531659141344cd1fd0a4f28419497f9722a3daafe3b4186f6b6457e060405160405180910390a36000600560016101000a81548173ffffffffffffffffffffffffffffffffffffffff021916908373ffffffffffffffffffffffffffffffffffffffff160217905550565b600061091b83610916610ebe565b610c86565b905081811015610960576040517f08c379a000000000000000000000000000000000000000000000000000000000815260040161095790612067565b60405180910390fd5b61097d8361096c610ebe565b848461097891906121cf565b610ec6565b6109878383611506565b505050565b610994610ebe565b73ffffffffffffffffffffffffffffffffffffffff166109b2610a12565b73ffffffffffffffffffffffffffffffffffffffff1614610a08576040517f08c379a00000000000000000000000000000000000000000000000000000000081526004016109ff90612047565b60405180910390fd5b610a106116da565b565b6000600560019054906101000a900473ffffffffffffffffffffffffffffffffffffffff16905090565b606060048054610a4b9061228b565b80601f0160208091040260200160405190810160405280929190818152602001828054610a779061228b565b8015610ac45780601f10610a9957610100808354040283529160200191610ac4565b820191906000526020600020905b815481529060010190602001808311610aa757829003601f168201915b5050505050905090565b610ad661076c565b15610b16576040517f08c379a0000000000000000000000000000000000000000000000000000000008152600401610b0d90612007565b60405180910390fd5b610b22336006546113b2565b3373ffffffffffffffffffffffffffffffffffffffff167f7cad7fbe1215c486c724bf41124e0ed689d280724381379da844556025c463c1600654604051610b6a9190612127565b60405180910390a2565b60008060016000610b83610ebe565b73ffffffffffffffffffffffffffffffffffffffff1673ffffffffffffffffffffffffffffffffffffffff16815260200190815260200160002060008573ffffffffffffffffffffffffffffffffffffffff1673ffffffffffffffffffffffffffffffffffffffff16815260200190815260200160002054905082811015610c40576040517f08c379a0000000000000000000000000000000000000000000000000000000008152600401610c37906120e7565b60405180910390fd5b610c5d610c4b610ebe565b858584610c5891906121cf565b610ec6565b600191505092915050565b6000610c7c610c75610ebe565b8484611091565b6001905092915050565b6000600160008473ffffffffffffffffffffffffffffffffffffffff1673ffffffffffffffffffffffffffffffffffffffff16815260200190815260200160002060008373ffffffffffffffffffffffffffffffffffffffff1673ffffffffffffffffffffffffffffffffffffffff16815260200190815260200160002054905092915050565b610d15610ebe565b73ffffffffffffffffffffffffffffffffffffffff16610d33610a12565b73ffffffffffffffffffffffffffffffffffffffff1614610d89576040517f08c379a0000000000000000000000000000000000000000000000000000000008152600401610d8090612047565b60405180910390fd5b600073ffffffffffffffffffffffffffffffffffffffff168173ffffffffffffffffffffffffffffffffffffffff161415610df9576040517f08c379a0000000000000000000000000000000000000000000000000000000008152600401610df090611fa7565b60405180910390fd5b8073ffffffffffffffffffffffffffffffffffffffff16600560019054906101000a900473ffffffffffffffffffffffffffffffffffffffff1673ffffffffffffffffffffffffffffffffffffffff167f8be0079c531659141344cd1fd0a4f28419497f9722a3daafe3b4186f6b6457e060405160405180910390a380600560016101000a81548173ffffffffffffffffffffffffffffffffffffffff021916908373ffffffffffffffffffffffffffffffffffffffff16021790555050565b505050565b600033905090565b600073ffffffffffffffffffffffffffffffffffffffff168373ffffffffffffffffffffffffffffffffffffffff161415610f36576040517f08c379a0000000000000000000000000000000000000000000000000000000008152600401610f2d906120c7565b60405180910390fd5b600073ffffffffffffffffffffffffffffffffffffffff168273ffffffffffffffffffffffffffffffffffffffff161415610fa6576040517f08c379a0000000000000000000000000000000000000000000000000000000008152600401610f9d90611fc7565b60405180910390fd5b80600160008573ffffffffffffffffffffffffffffffffffffffff1673ffffffffffffffffffffffffffffffffffffffff16815260200190815260200160002060008473ffffffffffffffffffffffffffffffffffffffff1673ffffffffffffffffffffffffffffffffffffffff168152602001908152602001600020819055508173ffffffffffffffffffffffffffffffffffffffff168373ffffffffffffffffffffffffffffffffffffffff167f8c5be1e5ebec7d5bd14f71427d1e84f3dd0314c0f7b2291e5b200ac8c7c3b925836040516110849190612127565b60405180910390a3505050565b600073ffffffffffffffffffffffffffffffffffffffff168373ffffffffffffffffffffffffffffffffffffffff161415611101576040517f08c379a00000000000000000000000000000000000000000000000000000000081526004016110f8906120a7565b60405180910390fd5b600073ffffffffffffffffffffffffffffffffffffffff168273ffffffffffffffffffffffffffffffffffffffff161415611171576040517f08c379a000000000000000000000000000000000000000000000000000000000815260040161116890611f47565b60405180910390fd5b61117c83838361177d565b60008060008573ffffffffffffffffffffffffffffffffffffffff1673ffffffffffffffffffffffffffffffffffffffff16815260200190815260200160002054905081811015611202576040517f08c379a00000000000000000000000000000000000000000000000000000000081526004016111f990611fe7565b60405180910390fd5b818161120e91906121cf565b6000808673ffffffffffffffffffffffffffffffffffffffff1673ffffffffffffffffffffffffffffffffffffffff16815260200190815260200160002081905550816000808573ffffffffffffffffffffffffffffffffffffffff1673ffffffffffffffffffffffffffffffffffffffff168152602001908152602001600020600082825461129e9190612179565b925050819055508273ffffffffffffffffffffffffffffffffffffffff168473ffffffffffffffffffffffffffffffffffffffff167fddf252ad1be2c89b69c2b068fc378daa952ba7f163c4a11628f55a4df523b3ef846040516113029190612127565b60405180910390a350505050565b61131861076c565b611357576040517f08c379a000000000000000000000000000000000000000000000000000000000815260040161134e90611f67565b60405180910390fd5b6000600560006101000a81548160ff0219169083151502179055507f5db9ee0a495bf2e6ff9c91a7834c1ba4fdd244a5e8aa4e537bd38aeae4b073aa61139b610ebe565b6040516113a89190611eef565b60405180910390a1565b600073ffffffffffffffffffffffffffffffffffffffff168273ffffffffffffffffffffffffffffffffffffffff161415611422576040517f08c379a000000000000000000000000000000000000000000000000000000000815260040161141990612107565b60405180910390fd5b61142e6000838361177d565b80600260008282546114409190612179565b92505081905550806000808473ffffffffffffffffffffffffffffffffffffffff1673ffffffffffffffffffffffffffffffffffffffff16815260200190815260200160002060008282546114959190612179565b925050819055508173ffffffffffffffffffffffffffffffffffffffff16600073ffffffffffffffffffffffffffffffffffffffff167fddf252ad1be2c89b69c2b068fc378daa952ba7f163c4a11628f55a4df523b3ef836040516114fa9190612127565b60405180910390a35050565b600073ffffffffffffffffffffffffffffffffffffffff168273ffffffffffffffffffffffffffffffffffffffff161415611576576040517f08c379a000000000000000000000000000000000000000000000000000000000815260040161156d90612087565b60405180910390fd5b6115828260008361177d565b60008060008473ffffffffffffffffffffffffffffffffffffffff1673ffffffffffffffffffffffffffffffffffffffff16815260200190815260200160002054905081811015611608576040517f08c379a00000000000000000000000000000000000000000000000000000000081526004016115ff90611f87565b60405180910390fd5b818161161491906121cf565b6000808573ffffffffffffffffffffffffffffffffffffffff1673ffffffffffffffffffffffffffffffffffffffff16815260200190815260200160002081905550816002600082825461166891906121cf565b92505081905550600073ffffffffffffffffffffffffffffffffffffffff168373ffffffffffffffffffffffffffffffffffffffff167fddf252ad1be2c89b69c2b068fc378daa952ba7f163c4a11628f55a4df523b3ef846040516116cd9190612127565b60405180910390a3505050565b6116e261076c565b15611722576040517f08c379a000000000000000000000000000000000000000000000000000000000815260040161171990612007565b60405180910390fd5b6001600560006101000a81548160ff0219169083151502179055507f62e78cea01bee320cd4e420270b5ea74000d11b0c9f74754ebdbfc544b05a258611766610ebe565b6040516117739190611eef565b60405180910390a1565b61178561076c565b156117c5576040517f08c379a00000000000000000000000000000000000000000000000000000000081526004016117bc90612007565b60405180910390fd5b6117d0838383610eb9565b505050565b6000813590506117e48161232c565b92915050565b6000813590506117f981612343565b92915050565b60006020828403121561181157600080fd5b600061181f848285016117d5565b91505092915050565b6000806040838503121561183b57600080fd5b6000611849858286016117d5565b925050602061185a858286016117d5565b9150509250929050565b60008060006060848603121561187957600080fd5b6000611887868287016117d5565b9350506020611898868287016117d5565b92505060406118a9868287016117ea565b9150509250925092565b600080604083850312156118c657600080fd5b60006118d4858286016117d5565b92505060206118e5858286016117ea565b9150509250929050565b60006020828403121561190157600080fd5b600061190f848285016117ea565b91505092915050565b61192181612203565b82525050565b61193081612215565b82525050565b60006119418261215d565b61194b8185612168565b935061195b818560208601612258565b6119648161231b565b840191505092915050565b600061197c602383612168565b91507f45524332303a207472616e7366657220746f20746865207a65726f206164647260008301527f65737300000000000000000000000000000000000000000000000000000000006020830152604082019050919050565b60006119e2601483612168565b91507f5061757361626c653a206e6f74207061757365640000000000000000000000006000830152602082019050919050565b6000611a22602283612168565b91507f45524332303a206275726e20616d6f756e7420657863656564732062616c616e60008301527f63650000000000000000000000000000000000000000000000000000000000006020830152604082019050919050565b6000611a88602683612168565b91507f4f776e61626c653a206e6577206f776e657220697320746865207a65726f206160008301527f64647265737300000000000000000000000000000000000000000000000000006020830152604082019050919050565b6000611aee602283612168565b91507f45524332303a20617070726f766520746f20746865207a65726f20616464726560008301527f73730000000000000000000000000000000000000000000000000000000000006020830152604082019050919050565b6000611b54602683612168565b91507f45524332303a207472616e7366657220616d6f756e742065786365656473206260008301527f616c616e636500000000000000000000000000000000000000000000000000006020830152604082019050919050565b6000611bba601083612168565b91507f5061757361626c653a20706175736564000000000000000000000000000000006000830152602082019050919050565b6000611bfa602883612168565b91507f45524332303a207472616e7366657220616d6f756e742065786365656473206160008301527f6c6c6f77616e63650000000000000000000000000000000000000000000000006020830152604082019050919050565b6000611c60602083612168565b91507f4f776e61626c653a2063616c6c6572206973206e6f7420746865206f776e65726000830152602082019050919050565b6000611ca0602483612168565b91507f45524332303a206275726e20616d6f756e74206578636565647320616c6c6f7760008301527f616e6365000000000000000000000000000000000000000000000000000000006020830152604082019050919050565b6000611d06602183612168565b91507f45524332303a206275726e2066726f6d20746865207a65726f2061646472657360008301527f73000000000000000000000000000000000000000000000000000000000000006020830152604082019050919050565b6000611d6c602583612168565b91507f45524332303a207472616e736665722066726f6d20746865207a65726f20616460008301527f64726573730000000000000000000000000000000000000000000000000000006020830152604082019050919050565b6000611dd2602483612168565b91507f45524332303a20617070726f76652066726f6d20746865207a65726f2061646460008301527f72657373000000000000000000000000000000000000000000000000000000006020830152604082019050919050565b6000611e38602583612168565b91507f45524332303a2064656372656173656420616c6c6f77616e63652062656c6f7760008301527f207a65726f0000000000000000000000000000000000000000000000000000006020830152604082019050919050565b6000611e9e601f83612168565b91507f45524332303a206d696e7420746f20746865207a65726f2061646472657373006000830152602082019050919050565b611eda81612241565b82525050565b611ee98161224b565b82525050565b6000602082019050611f046000830184611918565b92915050565b6000602082019050611f1f6000830184611927565b92915050565b60006020820190508181036000830152611f3f8184611936565b905092915050565b60006020820190508181036000830152611f608161196f565b9050919050565b60006020820190508181036000830152611f80816119d5565b9050919050565b60006020820190508181036000830152611fa081611a15565b9050919050565b60006020820190508181036000830152611fc081611a7b565b9050919050565b60006020820190508181036000830152611fe081611ae1565b9050919050565b6000602082019050818103600083015261200081611b47565b9050919050565b6000602082019050818103600083015261202081611bad565b9050919050565b6000602082019050818103600083015261204081611bed565b9050919050565b6000602082019050818103600083015261206081611c53565b9050919050565b6000602082019050818103600083015261208081611c93565b9050919050565b600060208201905081810360008301526120a081611cf9565b9050919050565b600060208201905081810360008301526120c081611d5f565b9050919050565b600060208201905081810360008301526120e081611dc5565b9050919050565b6000602082019050818103600083015261210081611e2b565b9050919050565b6000602082019050818103600083015261212081611e91565b9050919050565b600060208201905061213c6000830184611ed1565b92915050565b60006020820190506121576000830184611ee0565b92915050565b600081519050919050565b600082825260208201905092915050565b600061218482612241565b915061218f83612241565b9250827fffffffffffffffffffffffffffffffffffffffffffffffffffffffffffffffff038211156121c4576121c36122bd565b5b828201905092915050565b60006121da82612241565b91506121e583612241565b9250828210156121f8576121f76122bd565b5b828203905092915050565b600061220e82612221565b9050919050565b60008115159050919050565b600073ffffffffffffffffffffffffffffffffffffffff82169050919050565b6000819050919050565b600060ff82169050919050565b60005b8381101561227657808201518184015260208101905061225b565b83811115612285576000848401525b50505050565b600060028204905060018216806122a357607f821691505b602082108114156122b7576122b66122ec565b5b50919050565b7f4e487b7100000000000000000000000000000000000000000000000000000000600052601160045260246000fd5b7f4e487b7100000000000000000000000000000000000000000000000000000000600052602260045260246000fd5b6000601f19601f8301169050919050565b61233581612203565b811461234057600080fd5b50565b61234c81612241565b811461235757600080fd5b5056fea26469706673582212202350d8bed1b3db12319b2204b53459d5d4d6a8284515137f11ace76d6a991d0264736f6c63430008000033",
  "immutableReferences": {},
  "source": "// SPDX-License-Identifier: MIT\npragma solidity ^0.8.0;\n\nimport \"@openzeppelin/contracts/token/ERC20/ERC20.sol\";\nimport \"@openzeppelin/contracts/token/ERC20/extensions/ERC20Burnable.sol\";\nimport \"@openzeppelin/contracts/security/Pausable.sol\";\nimport \"@openzeppelin/contracts/access/Ownable.sol\";\n\ncontract CHENDollas is ERC20, ERC20Burnable, Pausable, Ownable {\n    uint _dripAmount;\n\n    event Drip(address indexed to, uint amount);\n\n    constructor() ERC20(\"CHEN Dollas\", \"CHEN\") {\n        _mint(msg.sender, 5000 * 10 ** decimals());\n        _dripAmount = 1000 * 10 ** decimals();\n    }\n\n    function pause() public onlyOwner {\n        _pause();\n    }\n\n    function unpause() public onlyOwner {\n        _unpause();\n    }\n\n    function mint(address to, uint256 amount) public onlyOwner {\n        _mint(to, amount);\n    }\n\n    function _beforeTokenTransfer(address from, address to, uint256 amount)\n        internal\n        whenNotPaused\n        override\n    {\n        super._beforeTokenTransfer(from, to, amount);\n    }\n\n    function drip() public whenNotPaused {\n      _mint(msg.sender, _dripAmount);\n      emit Drip(msg.sender, _dripAmount);\n    }\n}\n",
  "sourcePath": "/Users/jessechen/Documents/bank-of-chen/blockchain/contracts/CHENDollas.sol",
  "compiler": {
    "name": "solc",
    "version": "0.8.0+commit.c7dfd78e.Emscripten.clang"
  },
  "schemaVersion": "3.3.4",
  "updatedAt": "2021-04-14T08:59:03.763Z",
  "networkType": "ethereum",
  "devdoc": {
    "kind": "dev",
    "methods": {
      "allowance(address,address)": {
        "details": "See {IERC20-allowance}."
      },
      "approve(address,uint256)": {
        "details": "See {IERC20-approve}. Requirements: - `spender` cannot be the zero address."
      },
      "balanceOf(address)": {
        "details": "See {IERC20-balanceOf}."
      },
      "burn(uint256)": {
        "details": "Destroys `amount` tokens from the caller. See {ERC20-_burn}."
      },
      "burnFrom(address,uint256)": {
        "details": "Destroys `amount` tokens from `account`, deducting from the caller's allowance. See {ERC20-_burn} and {ERC20-allowance}. Requirements: - the caller must have allowance for ``accounts``'s tokens of at least `amount`."
      },
      "decimals()": {
        "details": "Returns the number of decimals used to get its user representation. For example, if `decimals` equals `2`, a balance of `505` tokens should be displayed to a user as `5,05` (`505 / 10 ** 2`). Tokens usually opt for a value of 18, imitating the relationship between Ether and Wei. This is the value {ERC20} uses, unless this function is overloaded; NOTE: This information is only used for _display_ purposes: it in no way affects any of the arithmetic of the contract, including {IERC20-balanceOf} and {IERC20-transfer}."
      },
      "decreaseAllowance(address,uint256)": {
        "details": "Atomically decreases the allowance granted to `spender` by the caller. This is an alternative to {approve} that can be used as a mitigation for problems described in {IERC20-approve}. Emits an {Approval} event indicating the updated allowance. Requirements: - `spender` cannot be the zero address. - `spender` must have allowance for the caller of at least `subtractedValue`."
      },
      "increaseAllowance(address,uint256)": {
        "details": "Atomically increases the allowance granted to `spender` by the caller. This is an alternative to {approve} that can be used as a mitigation for problems described in {IERC20-approve}. Emits an {Approval} event indicating the updated allowance. Requirements: - `spender` cannot be the zero address."
      },
      "name()": {
        "details": "Returns the name of the token."
      },
      "owner()": {
        "details": "Returns the address of the current owner."
      },
      "paused()": {
        "details": "Returns true if the contract is paused, and false otherwise."
      },
      "renounceOwnership()": {
        "details": "Leaves the contract without owner. It will not be possible to call `onlyOwner` functions anymore. Can only be called by the current owner. NOTE: Renouncing ownership will leave the contract without an owner, thereby removing any functionality that is only available to the owner."
      },
      "symbol()": {
        "details": "Returns the symbol of the token, usually a shorter version of the name."
      },
      "totalSupply()": {
        "details": "See {IERC20-totalSupply}."
      },
      "transfer(address,uint256)": {
        "details": "See {IERC20-transfer}. Requirements: - `recipient` cannot be the zero address. - the caller must have a balance of at least `amount`."
      },
      "transferFrom(address,address,uint256)": {
        "details": "See {IERC20-transferFrom}. Emits an {Approval} event indicating the updated allowance. This is not required by the EIP. See the note at the beginning of {ERC20}. Requirements: - `sender` and `recipient` cannot be the zero address. - `sender` must have a balance of at least `amount`. - the caller must have allowance for ``sender``'s tokens of at least `amount`."
      },
      "transferOwnership(address)": {
        "details": "Transfers ownership of the contract to a new account (`newOwner`). Can only be called by the current owner."
      }
    },
    "version": 1
  },
  "userdoc": {
    "kind": "user",
    "methods": {},
    "version": 1
  }
}