{
  "contractName": "CHENDollas",
  "abi": [
    {
      "inputs": [],
      "stateMutability": "nonpayable",
      "type": "constructor"
    },
    {
      "anonymous": false,
      "inputs": [
        {
          "indexed": true,
          "internalType": "address",
          "name": "owner",
          "type": "address"
        },
        {
          "indexed": true,
          "internalType": "address",
          "name": "spender",
          "type": "address"
        },
        {
          "indexed": false,
          "internalType": "uint256",
          "name": "value",
          "type": "uint256"
        }
      ],
      "name": "Approval",
      "type": "event"
    },
    {
      "anonymous": false,
      "inputs": [
        {
          "indexed": true,
          "internalType": "address",
          "name": "to",
          "type": "address"
        },
        {
          "indexed": false,
          "internalType": "uint256",
          "name": "amount",
          "type": "uint256"
        }
      ],
      "name": "Drip",
      "type": "event"
    },
    {
      "anonymous": false,
      "inputs": [
        {
          "indexed": true,
          "internalType": "address",
          "name": "previousOwner",
          "type": "address"
        },
        {
          "indexed": true,
          "internalType": "address",
          "name": "newOwner",
          "type": "address"
        }
      ],
      "name": "OwnershipTransferred",
      "type": "event"
    },
    {
      "anonymous": false,
      "inputs": [
        {
          "indexed": false,
          "internalType": "address",
          "name": "account",
          "type": "address"
        }
      ],
      "name": "Paused",
      "type": "event"
    },
    {
      "anonymous": false,
      "inputs": [
        {
          "indexed": true,
          "internalType": "address",
          "name": "from",
          "type": "address"
        },
        {
          "indexed": true,
          "internalType": "address",
          "name": "to",
          "type": "address"
        },
        {
          "indexed": false,
          "internalType": "uint256",
          "name": "value",
          "type": "uint256"
        }
      ],
      "name": "Transfer",
      "type": "event"
    },
    {
      "anonymous": false,
      "inputs": [
        {
          "indexed": false,
          "internalType": "address",
          "name": "account",
          "type": "address"
        }
      ],
      "name": "Unpaused",
      "type": "event"
    },
    {
      "inputs": [
        {
          "internalType": "address",
          "name": "owner",
          "type": "address"
        },
        {
          "internalType": "address",
          "name": "spender",
          "type": "address"
        }
      ],
      "name": "allowance",
      "outputs": [
        {
          "internalType": "uint256",
          "name": "",
          "type": "uint256"
        }
      ],
      "stateMutability": "view",
      "type": "function",
      "constant": true
    },
    {
      "inputs": [
        {
          "internalType": "address",
          "name": "spender",
          "type": "address"
        },
        {
          "internalType": "uint256",
          "name": "amount",
          "type": "uint256"
        }
      ],
      "name": "approve",
      "outputs": [
        {
          "internalType": "bool",
          "name": "",
          "type": "bool"
        }
      ],
      "stateMutability": "nonpayable",
      "type": "function"
    },
    {
      "inputs": [
        {
          "internalType": "address",
          "name": "account",
          "type": "address"
        }
      ],
      "name": "balanceOf",
      "outputs": [
        {
          "internalType": "uint256",
          "name": "",
          "type": "uint256"
        }
      ],
      "stateMutability": "view",
      "type": "function",
      "constant": true
    },
    {
      "inputs": [
        {
          "internalType": "uint256",
          "name": "amount",
          "type": "uint256"
        }
      ],
      "name": "burn",
      "outputs": [],
      "stateMutability": "nonpayable",
      "type": "function"
    },
    {
      "inputs": [
        {
          "internalType": "address",
          "name": "account",
          "type": "address"
        },
        {
          "internalType": "uint256",
          "name": "amount",
          "type": "uint256"
        }
      ],
      "name": "burnFrom",
      "outputs": [],
      "stateMutability": "nonpayable",
      "type": "function"
    },
    {
      "inputs": [],
      "name": "decimals",
      "outputs": [
        {
          "internalType": "uint8",
          "name": "",
          "type": "uint8"
        }
      ],
      "stateMutability": "view",
      "type": "function",
      "constant": true
    },
    {
      "inputs": [
        {
          "internalType": "address",
          "name": "spender",
          "type": "address"
        },
        {
          "internalType": "uint256",
          "name": "subtractedValue",
          "type": "uint256"
        }
      ],
      "name": "decreaseAllowance",
      "outputs": [
        {
          "internalType": "bool",
          "name": "",
          "type": "bool"
        }
      ],
      "stateMutability": "nonpayable",
      "type": "function"
    },
    {
      "inputs": [
        {
          "internalType": "address",
          "name": "spender",
          "type": "address"
        },
        {
          "internalType": "uint256",
          "name": "addedValue",
          "type": "uint256"
        }
      ],
      "name": "increaseAllowance",
      "outputs": [
        {
          "internalType": "bool",
          "name": "",
          "type": "bool"
        }
      ],
      "stateMutability": "nonpayable",
      "type": "function"
    },
    {
      "inputs": [],
      "name": "name",
      "outputs": [
        {
          "internalType": "string",
          "name": "",
          "type": "string"
        }
      ],
      "stateMutability": "view",
      "type": "function",
      "constant": true
    },
    {
      "inputs": [],
      "name": "owner",
      "outputs": [
        {
          "internalType": "address",
          "name": "",
          "type": "address"
        }
      ],
      "stateMutability": "view",
      "type": "function",
      "constant": true
    },
    {
      "inputs": [],
      "name": "paused",
      "outputs": [
        {
          "internalType": "bool",
          "name": "",
          "type": "bool"
        }
      ],
      "stateMutability": "view",
      "type": "function",
      "constant": true
    },
    {
      "inputs": [],
      "name": "renounceOwnership",
      "outputs": [],
      "stateMutability": "nonpayable",
      "type": "function"
    },
    {
      "inputs": [],
      "name": "symbol",
      "outputs": [
        {
          "internalType": "string",
          "name": "",
          "type": "string"
        }
      ],
      "stateMutability": "view",
      "type": "function",
      "constant": true
    },
    {
      "inputs": [],
      "name": "totalSupply",
      "outputs": [
        {
          "internalType": "uint256",
          "name": "",
          "type": "uint256"
        }
      ],
      "stateMutability": "view",
      "type": "function",
      "constant": true
    },
    {
      "inputs": [
        {
          "internalType": "address",
          "name": "recipient",
          "type": "address"
        },
        {
          "internalType": "uint256",
          "name": "amount",
          "type": "uint256"
        }
      ],
      "name": "transfer",
      "outputs": [
        {
          "internalType": "bool",
          "name": "",
          "type": "bool"
        }
      ],
      "stateMutability": "nonpayable",
      "type": "function"
    },
    {
      "inputs": [
        {
          "internalType": "address",
          "name": "sender",
          "type": "address"
        },
        {
          "internalType": "address",
          "name": "recipient",
          "type": "address"
        },
        {
          "internalType": "uint256",
          "name": "amount",
          "type": "uint256"
        }
      ],
      "name": "transferFrom",
      "outputs": [
        {
          "internalType": "bool",
          "name": "",
          "type": "bool"
        }
      ],
      "stateMutability": "nonpayable",
      "type": "function"
    },
    {
      "inputs": [
        {
          "internalType": "address",
          "name": "newOwner",
          "type": "address"
        }
      ],
      "name": "transferOwnership",
      "outputs": [],
      "stateMutability": "nonpayable",
      "type": "function"
    },
    {
      "inputs": [],
      "name": "pause",
      "outputs": [],
      "stateMutability": "nonpayable",
      "type": "function"
    },
    {
      "inputs": [],
      "name": "unpause",
      "outputs": [],
      "stateMutability": "nonpayable",
      "type": "function"
    },
    {
      "inputs": [
        {
          "internalType": "address",
          "name": "to",
          "type": "address"
        },
        {
          "internalType": "uint256",
          "name": "amount",
          "type": "uint256"
        }
      ],
      "name": "mint",
      "outputs": [],
      "stateMutability": "nonpayable",
      "type": "function"
    },
    {
      "inputs": [],
      "name": "drip",
      "outputs": [],
      "stateMutability": "nonpayable",
      "type": "function"
    }
  ],
  "bytecode": "0x60806040523480156200001157600080fd5b506040518060400160405280600b81526020017f4348454e20446f6c6c61730000000000000000000000000000000000000000008152506040518060400160405280600481526020017f4348454e000000000000000000000000000000000000000000000000000000008152508160039080519060200190620000969291906200042a565b508060049080519060200190620000af9291906200042a565b5050506000600560006101000a81548160ff0219169083151502179055506000620000df6200022860201b60201c565b905080600560016101000a81548173ffffffffffffffffffffffffffffffffffffffff021916908373ffffffffffffffffffffffffffffffffffffffff1602179055508073ffffffffffffffffffffffffffffffffffffffff16600073ffffffffffffffffffffffffffffffffffffffff167f8be0079c531659141344cd1fd0a4f28419497f9722a3daafe3b4186f6b6457e060405160405180910390a350620001bc33620001936200023060201b60201c565b600a620001a1919062000699565b61c350620001b09190620007d6565b6200023960201b60201c565b620001cc6200023060201b60201c565b600a620001da919062000699565b6103e8620001e99190620007d6565b600681905550620001ff6200023060201b60201c565b600a6200020d919062000699565b6113886200021c9190620007d6565b600781905550620008ef565b600033905090565b60006012905090565b600073ffffffffffffffffffffffffffffffffffffffff168273ffffffffffffffffffffffffffffffffffffffff161415620002ac576040517f08c379a0000000000000000000000000000000000000000000000000000000008152600401620002a39062000591565b60405180910390fd5b620002c0600083836200039e60201b60201c565b8060026000828254620002d49190620005e1565b92505081905550806000808473ffffffffffffffffffffffffffffffffffffffff1673ffffffffffffffffffffffffffffffffffffffff16815260200190815260200160002060008282546200032b9190620005e1565b925050819055508173ffffffffffffffffffffffffffffffffffffffff16600073ffffffffffffffffffffffffffffffffffffffff167fddf252ad1be2c89b69c2b068fc378daa952ba7f163c4a11628f55a4df523b3ef83604051620003929190620005b3565b60405180910390a35050565b620003ae6200040e60201b60201c565b15620003f1576040517f08c379a0000000000000000000000000000000000000000000000000000000008152600401620003e8906200056f565b60405180910390fd5b620004098383836200042560201b62000f051760201c565b505050565b6000600560009054906101000a900460ff16905090565b505050565b82805462000438906200084e565b90600052602060002090601f0160209004810192826200045c5760008555620004a8565b82601f106200047757805160ff1916838001178555620004a8565b82800160010185558215620004a8579182015b82811115620004a75782518255916020019190600101906200048a565b5b509050620004b79190620004bb565b5090565b5b80821115620004d6576000816000905550600101620004bc565b5090565b6000620004e9601083620005d0565b91507f5061757361626c653a20706175736564000000000000000000000000000000006000830152602082019050919050565b60006200052b601f83620005d0565b91507f45524332303a206d696e7420746f20746865207a65726f2061646472657373006000830152602082019050919050565b620005698162000837565b82525050565b600060208201905081810360008301526200058a81620004da565b9050919050565b60006020820190508181036000830152620005ac816200051c565b9050919050565b6000602082019050620005ca60008301846200055e565b92915050565b600082825260208201905092915050565b6000620005ee8262000837565b9150620005fb8362000837565b9250827fffffffffffffffffffffffffffffffffffffffffffffffffffffffffffffffff0382111562000633576200063262000884565b5b828201905092915050565b6000808291508390505b6001851115620006905780860481111562000668576200066762000884565b5b6001851615620006785780820291505b80810290506200068885620008e2565b945062000648565b94509492505050565b6000620006a68262000837565b9150620006b38362000841565b9250620006e27fffffffffffffffffffffffffffffffffffffffffffffffffffffffffffffffff8484620006ea565b905092915050565b600082620006fc5760019050620007cf565b816200070c5760009050620007cf565b8160018114620007255760028114620007305762000766565b6001915050620007cf565b60ff84111562000745576200074462000884565b5b8360020a9150848211156200075f576200075e62000884565b5b50620007cf565b5060208310610133831016604e8410600b8410161715620007a05782820a9050838111156200079a576200079962000884565b5b620007cf565b620007af84848460016200063e565b92509050818404811115620007c957620007c862000884565b5b81810290505b9392505050565b6000620007e38262000837565b9150620007f08362000837565b9250817fffffffffffffffffffffffffffffffffffffffffffffffffffffffffffffffff04831182151516156200082c576200082b62000884565b5b828202905092915050565b6000819050919050565b600060ff82169050919050565b600060028204905060018216806200086757607f821691505b602082108114156200087e576200087d620008b3565b5b50919050565b7f4e487b7100000000000000000000000000000000000000000000000000000000600052601160045260246000fd5b7f4e487b7100000000000000000000000000000000000000000000000000000000600052602260045260246000fd5b60008160011c9050919050565b61243c80620008ff6000396000f3fe608060405234801561001057600080fd5b50600436106101375760003560e01c806370a08231116100b857806395d89b411161007c57806395d89b41146103045780639f678cca14610322578063a457c2d71461032c578063a9059cbb1461035c578063dd62ed3e1461038c578063f2fde38b146103bc57610137565b806370a0823114610286578063715018a6146102b657806379cc6790146102c05780638456cb59146102dc5780638da5cb5b146102e657610137565b806339509351116100ff57806339509351146101f65780633f4ba83a1461022657806340c10f191461023057806342966c681461024c5780635c975abb1461026857610137565b806306fdde031461013c578063095ea7b31461015a57806318160ddd1461018a57806323b872dd146101a8578063313ce567146101d8575b600080fd5b6101446103d8565b6040516101519190611fb1565b60405180910390f35b610174600480360381019061016f91906118ff565b61046a565b6040516101819190611f96565b60405180910390f35b610192610488565b60405161019f91906121d3565b60405180910390f35b6101c260048036038101906101bd91906118b0565b610492565b6040516101cf9190611f96565b60405180910390f35b6101e0610593565b6040516101ed91906121ee565b60405180910390f35b610210600480360381019061020b91906118ff565b61059c565b60405161021d9190611f96565b60405180910390f35b61022e610648565b005b61024a600480360381019061024591906118ff565b6106ce565b005b6102666004803603810190610261919061193b565b610758565b005b61027061076c565b60405161027d9190611f96565b60405180910390f35b6102a0600480360381019061029b919061184b565b610783565b6040516102ad91906121d3565b60405180910390f35b6102be6107cb565b005b6102da60048036038101906102d591906118ff565b610908565b005b6102e461098c565b005b6102ee610a12565b6040516102fb9190611f7b565b60405180910390f35b61030c610a3c565b6040516103199190611fb1565b60405180910390f35b61032a610ace565b005b610346600480360381019061034191906118ff565b610bc0565b6040516103539190611f96565b60405180910390f35b610376600480360381019061037191906118ff565b610cb4565b6040516103839190611f96565b60405180910390f35b6103a660048036038101906103a19190611874565b610cd2565b6040516103b391906121d3565b60405180910390f35b6103d660048036038101906103d1919061184b565b610d59565b005b6060600380546103e790612337565b80601f016020809104026020016040519081016040528092919081815260200182805461041390612337565b80156104605780601f1061043557610100808354040283529160200191610460565b820191906000526020600020905b81548152906001019060200180831161044357829003601f168201915b5050505050905090565b600061047e610477610f0a565b8484610f12565b6001905092915050565b6000600254905090565b600061049f8484846110dd565b6000600160008673ffffffffffffffffffffffffffffffffffffffff1673ffffffffffffffffffffffffffffffffffffffff16815260200190815260200160002060006104ea610f0a565b73ffffffffffffffffffffffffffffffffffffffff1673ffffffffffffffffffffffffffffffffffffffff1681526020019081526020016000205490508281101561056a576040517f08c379a0000000000000000000000000000000000000000000000000000000008152600401610561906120d3565b60405180910390fd5b61058785610576610f0a565b8584610582919061227b565b610f12565b60019150509392505050565b60006012905090565b600061063e6105a9610f0a565b8484600160006105b7610f0a565b73ffffffffffffffffffffffffffffffffffffffff1673ffffffffffffffffffffffffffffffffffffffff16815260200190815260200160002060008873ffffffffffffffffffffffffffffffffffffffff1673ffffffffffffffffffffffffffffffffffffffff168152602001908152602001600020546106399190612225565b610f12565b6001905092915050565b610650610f0a565b73ffffffffffffffffffffffffffffffffffffffff1661066e610a12565b73ffffffffffffffffffffffffffffffffffffffff16146106c4576040517f08c379a00000000000000000000000000000000000000000000000000000000081526004016106bb906120f3565b60405180910390fd5b6106cc61135c565b565b6106d6610f0a565b73ffffffffffffffffffffffffffffffffffffffff166106f4610a12565b73ffffffffffffffffffffffffffffffffffffffff161461074a576040517f08c379a0000000000000000000000000000000000000000000000000000000008152600401610741906120f3565b60405180910390fd5b61075482826113fe565b5050565b610769610763610f0a565b82611552565b50565b6000600560009054906101000a900460ff16905090565b60008060008373ffffffffffffffffffffffffffffffffffffffff1673ffffffffffffffffffffffffffffffffffffffff168152602001908152602001600020549050919050565b6107d3610f0a565b73ffffffffffffffffffffffffffffffffffffffff166107f1610a12565b73ffffffffffffffffffffffffffffffffffffffff1614610847576040517f08c379a000000000000000000000000000000000000000000000000000000000815260040161083e906120f3565b60405180910390fd5b600073ffffffffffffffffffffffffffffffffffffffff16600560019054906101000a900473ffffffffffffffffffffffffffffffffffffffff1673ffffffffffffffffffffffffffffffffffffffff167f8be0079c531659141344cd1fd0a4f28419497f9722a3daafe3b4186f6b6457e060405160405180910390a36000600560016101000a81548173ffffffffffffffffffffffffffffffffffffffff021916908373ffffffffffffffffffffffffffffffffffffffff160217905550565b600061091b83610916610f0a565b610cd2565b905081811015610960576040517f08c379a000000000000000000000000000000000000000000000000000000000815260040161095790612113565b60405180910390fd5b61097d8361096c610f0a565b8484610978919061227b565b610f12565b6109878383611552565b505050565b610994610f0a565b73ffffffffffffffffffffffffffffffffffffffff166109b2610a12565b73ffffffffffffffffffffffffffffffffffffffff1614610a08576040517f08c379a00000000000000000000000000000000000000000000000000000000081526004016109ff906120f3565b60405180910390fd5b610a10611726565b565b6000600560019054906101000a900473ffffffffffffffffffffffffffffffffffffffff16905090565b606060048054610a4b90612337565b80601f0160208091040260200160405190810160405280929190818152602001828054610a7790612337565b8015610ac45780601f10610a9957610100808354040283529160200191610ac4565b820191906000526020600020905b815481529060010190602001808311610aa757829003601f168201915b5050505050905090565b610ad661076c565b15610b16576040517f08c379a0000000000000000000000000000000000000000000000000000000008152600401610b0d90612093565b60405180910390fd5b600754610b2233610783565b10610b62576040517f08c379a0000000000000000000000000000000000000000000000000000000008152600401610b59906120b3565b60405180910390fd5b610b6e336006546113fe565b3373ffffffffffffffffffffffffffffffffffffffff167f7cad7fbe1215c486c724bf41124e0ed689d280724381379da844556025c463c1600654604051610bb691906121d3565b60405180910390a2565b60008060016000610bcf610f0a565b73ffffffffffffffffffffffffffffffffffffffff1673ffffffffffffffffffffffffffffffffffffffff16815260200190815260200160002060008573ffffffffffffffffffffffffffffffffffffffff1673ffffffffffffffffffffffffffffffffffffffff16815260200190815260200160002054905082811015610c8c576040517f08c379a0000000000000000000000000000000000000000000000000000000008152600401610c8390612193565b60405180910390fd5b610ca9610c97610f0a565b858584610ca4919061227b565b610f12565b600191505092915050565b6000610cc8610cc1610f0a565b84846110dd565b6001905092915050565b6000600160008473ffffffffffffffffffffffffffffffffffffffff1673ffffffffffffffffffffffffffffffffffffffff16815260200190815260200160002060008373ffffffffffffffffffffffffffffffffffffffff1673ffffffffffffffffffffffffffffffffffffffff16815260200190815260200160002054905092915050565b610d61610f0a565b73ffffffffffffffffffffffffffffffffffffffff16610d7f610a12565b73ffffffffffffffffffffffffffffffffffffffff1614610dd5576040517f08c379a0000000000000000000000000000000000000000000000000000000008152600401610dcc906120f3565b60405180910390fd5b600073ffffffffffffffffffffffffffffffffffffffff168173ffffffffffffffffffffffffffffffffffffffff161415610e45576040517f08c379a0000000000000000000000000000000000000000000000000000000008152600401610e3c90612033565b60405180910390fd5b8073ffffffffffffffffffffffffffffffffffffffff16600560019054906101000a900473ffffffffffffffffffffffffffffffffffffffff1673ffffffffffffffffffffffffffffffffffffffff167f8be0079c531659141344cd1fd0a4f28419497f9722a3daafe3b4186f6b6457e060405160405180910390a380600560016101000a81548173ffffffffffffffffffffffffffffffffffffffff021916908373ffffffffffffffffffffffffffffffffffffffff16021790555050565b505050565b600033905090565b600073ffffffffffffffffffffffffffffffffffffffff168373ffffffffffffffffffffffffffffffffffffffff161415610f82576040517f08c379a0000000000000000000000000000000000000000000000000000000008152600401610f7990612173565b60405180910390fd5b600073ffffffffffffffffffffffffffffffffffffffff168273ffffffffffffffffffffffffffffffffffffffff161415610ff2576040517f08c379a0000000000000000000000000000000000000000000000000000000008152600401610fe990612053565b60405180910390fd5b80600160008573ffffffffffffffffffffffffffffffffffffffff1673ffffffffffffffffffffffffffffffffffffffff16815260200190815260200160002060008473ffffffffffffffffffffffffffffffffffffffff1673ffffffffffffffffffffffffffffffffffffffff168152602001908152602001600020819055508173ffffffffffffffffffffffffffffffffffffffff168373ffffffffffffffffffffffffffffffffffffffff167f8c5be1e5ebec7d5bd14f71427d1e84f3dd0314c0f7b2291e5b200ac8c7c3b925836040516110d091906121d3565b60405180910390a3505050565b600073ffffffffffffffffffffffffffffffffffffffff168373ffffffffffffffffffffffffffffffffffffffff16141561114d576040517f08c379a000000000000000000000000000000000000000000000000000000000815260040161114490612153565b60405180910390fd5b600073ffffffffffffffffffffffffffffffffffffffff168273ffffffffffffffffffffffffffffffffffffffff1614156111bd576040517f08c379a00000000000000000000000000000000000000000000000000000000081526004016111b490611fd3565b60405180910390fd5b6111c88383836117c9565b60008060008573ffffffffffffffffffffffffffffffffffffffff1673ffffffffffffffffffffffffffffffffffffffff1681526020019081526020016000205490508181101561124e576040517f08c379a000000000000000000000000000000000000000000000000000000000815260040161124590612073565b60405180910390fd5b818161125a919061227b565b6000808673ffffffffffffffffffffffffffffffffffffffff1673ffffffffffffffffffffffffffffffffffffffff16815260200190815260200160002081905550816000808573ffffffffffffffffffffffffffffffffffffffff1673ffffffffffffffffffffffffffffffffffffffff16815260200190815260200160002060008282546112ea9190612225565b925050819055508273ffffffffffffffffffffffffffffffffffffffff168473ffffffffffffffffffffffffffffffffffffffff167fddf252ad1be2c89b69c2b068fc378daa952ba7f163c4a11628f55a4df523b3ef8460405161134e91906121d3565b60405180910390a350505050565b61136461076c565b6113a3576040517f08c379a000000000000000000000000000000000000000000000000000000000815260040161139a90611ff3565b60405180910390fd5b6000600560006101000a81548160ff0219169083151502179055507f5db9ee0a495bf2e6ff9c91a7834c1ba4fdd244a5e8aa4e537bd38aeae4b073aa6113e7610f0a565b6040516113f49190611f7b565b60405180910390a1565b600073ffffffffffffffffffffffffffffffffffffffff168273ffffffffffffffffffffffffffffffffffffffff16141561146e576040517f08c379a0000000000000000000000000000000000000000000000000000000008152600401611465906121b3565b60405180910390fd5b61147a600083836117c9565b806002600082825461148c9190612225565b92505081905550806000808473ffffffffffffffffffffffffffffffffffffffff1673ffffffffffffffffffffffffffffffffffffffff16815260200190815260200160002060008282546114e19190612225565b925050819055508173ffffffffffffffffffffffffffffffffffffffff16600073ffffffffffffffffffffffffffffffffffffffff167fddf252ad1be2c89b69c2b068fc378daa952ba7f163c4a11628f55a4df523b3ef8360405161154691906121d3565b60405180910390a35050565b600073ffffffffffffffffffffffffffffffffffffffff168273ffffffffffffffffffffffffffffffffffffffff1614156115c2576040517f08c379a00000000000000000000000000000000000000000000000000000000081526004016115b990612133565b60405180910390fd5b6115ce826000836117c9565b60008060008473ffffffffffffffffffffffffffffffffffffffff1673ffffffffffffffffffffffffffffffffffffffff16815260200190815260200160002054905081811015611654576040517f08c379a000000000000000000000000000000000000000000000000000000000815260040161164b90612013565b60405180910390fd5b8181611660919061227b565b6000808573ffffffffffffffffffffffffffffffffffffffff1673ffffffffffffffffffffffffffffffffffffffff1681526020019081526020016000208190555081600260008282546116b4919061227b565b92505081905550600073ffffffffffffffffffffffffffffffffffffffff168373ffffffffffffffffffffffffffffffffffffffff167fddf252ad1be2c89b69c2b068fc378daa952ba7f163c4a11628f55a4df523b3ef8460405161171991906121d3565b60405180910390a3505050565b61172e61076c565b1561176e576040517f08c379a000000000000000000000000000000000000000000000000000000000815260040161176590612093565b60405180910390fd5b6001600560006101000a81548160ff0219169083151502179055507f62e78cea01bee320cd4e420270b5ea74000d11b0c9f74754ebdbfc544b05a2586117b2610f0a565b6040516117bf9190611f7b565b60405180910390a1565b6117d161076c565b15611811576040517f08c379a000000000000000000000000000000000000000000000000000000000815260040161180890612093565b60405180910390fd5b61181c838383610f05565b505050565b600081359050611830816123d8565b92915050565b600081359050611845816123ef565b92915050565b60006020828403121561185d57600080fd5b600061186b84828501611821565b91505092915050565b6000806040838503121561188757600080fd5b600061189585828601611821565b92505060206118a685828601611821565b9150509250929050565b6000806000606084860312156118c557600080fd5b60006118d386828701611821565b93505060206118e486828701611821565b92505060406118f586828701611836565b9150509250925092565b6000806040838503121561191257600080fd5b600061192085828601611821565b925050602061193185828601611836565b9150509250929050565b60006020828403121561194d57600080fd5b600061195b84828501611836565b91505092915050565b61196d816122af565b82525050565b61197c816122c1565b82525050565b600061198d82612209565b6119978185612214565b93506119a7818560208601612304565b6119b0816123c7565b840191505092915050565b60006119c8602383612214565b91507f45524332303a207472616e7366657220746f20746865207a65726f206164647260008301527f65737300000000000000000000000000000000000000000000000000000000006020830152604082019050919050565b6000611a2e601483612214565b91507f5061757361626c653a206e6f74207061757365640000000000000000000000006000830152602082019050919050565b6000611a6e602283612214565b91507f45524332303a206275726e20616d6f756e7420657863656564732062616c616e60008301527f63650000000000000000000000000000000000000000000000000000000000006020830152604082019050919050565b6000611ad4602683612214565b91507f4f776e61626c653a206e6577206f776e657220697320746865207a65726f206160008301527f64647265737300000000000000000000000000000000000000000000000000006020830152604082019050919050565b6000611b3a602283612214565b91507f45524332303a20617070726f766520746f20746865207a65726f20616464726560008301527f73730000000000000000000000000000000000000000000000000000000000006020830152604082019050919050565b6000611ba0602683612214565b91507f45524332303a207472616e7366657220616d6f756e742065786365656473206260008301527f616c616e636500000000000000000000000000000000000000000000000000006020830152604082019050919050565b6000611c06601083612214565b91507f5061757361626c653a20706175736564000000000000000000000000000000006000830152602082019050919050565b6000611c46601a83612214565b91507f4163636f756e7420616c72656164792068617320656e6f7567680000000000006000830152602082019050919050565b6000611c86602883612214565b91507f45524332303a207472616e7366657220616d6f756e742065786365656473206160008301527f6c6c6f77616e63650000000000000000000000000000000000000000000000006020830152604082019050919050565b6000611cec602083612214565b91507f4f776e61626c653a2063616c6c6572206973206e6f7420746865206f776e65726000830152602082019050919050565b6000611d2c602483612214565b91507f45524332303a206275726e20616d6f756e74206578636565647320616c6c6f7760008301527f616e6365000000000000000000000000000000000000000000000000000000006020830152604082019050919050565b6000611d92602183612214565b91507f45524332303a206275726e2066726f6d20746865207a65726f2061646472657360008301527f73000000000000000000000000000000000000000000000000000000000000006020830152604082019050919050565b6000611df8602583612214565b91507f45524332303a207472616e736665722066726f6d20746865207a65726f20616460008301527f64726573730000000000000000000000000000000000000000000000000000006020830152604082019050919050565b6000611e5e602483612214565b91507f45524332303a20617070726f76652066726f6d20746865207a65726f2061646460008301527f72657373000000000000000000000000000000000000000000000000000000006020830152604082019050919050565b6000611ec4602583612214565b91507f45524332303a2064656372656173656420616c6c6f77616e63652062656c6f7760008301527f207a65726f0000000000000000000000000000000000000000000000000000006020830152604082019050919050565b6000611f2a601f83612214565b91507f45524332303a206d696e7420746f20746865207a65726f2061646472657373006000830152602082019050919050565b611f66816122ed565b82525050565b611f75816122f7565b82525050565b6000602082019050611f906000830184611964565b92915050565b6000602082019050611fab6000830184611973565b92915050565b60006020820190508181036000830152611fcb8184611982565b905092915050565b60006020820190508181036000830152611fec816119bb565b9050919050565b6000602082019050818103600083015261200c81611a21565b9050919050565b6000602082019050818103600083015261202c81611a61565b9050919050565b6000602082019050818103600083015261204c81611ac7565b9050919050565b6000602082019050818103600083015261206c81611b2d565b9050919050565b6000602082019050818103600083015261208c81611b93565b9050919050565b600060208201905081810360008301526120ac81611bf9565b9050919050565b600060208201905081810360008301526120cc81611c39565b9050919050565b600060208201905081810360008301526120ec81611c79565b9050919050565b6000602082019050818103600083015261210c81611cdf565b9050919050565b6000602082019050818103600083015261212c81611d1f565b9050919050565b6000602082019050818103600083015261214c81611d85565b9050919050565b6000602082019050818103600083015261216c81611deb565b9050919050565b6000602082019050818103600083015261218c81611e51565b9050919050565b600060208201905081810360008301526121ac81611eb7565b9050919050565b600060208201905081810360008301526121cc81611f1d565b9050919050565b60006020820190506121e86000830184611f5d565b92915050565b60006020820190506122036000830184611f6c565b92915050565b600081519050919050565b600082825260208201905092915050565b6000612230826122ed565b915061223b836122ed565b9250827fffffffffffffffffffffffffffffffffffffffffffffffffffffffffffffffff038211156122705761226f612369565b5b828201905092915050565b6000612286826122ed565b9150612291836122ed565b9250828210156122a4576122a3612369565b5b828203905092915050565b60006122ba826122cd565b9050919050565b60008115159050919050565b600073ffffffffffffffffffffffffffffffffffffffff82169050919050565b6000819050919050565b600060ff82169050919050565b60005b83811015612322578082015181840152602081019050612307565b83811115612331576000848401525b50505050565b6000600282049050600182168061234f57607f821691505b6020821081141561236357612362612398565b5b50919050565b7f4e487b7100000000000000000000000000000000000000000000000000000000600052601160045260246000fd5b7f4e487b7100000000000000000000000000000000000000000000000000000000600052602260045260246000fd5b6000601f19601f8301169050919050565b6123e1816122af565b81146123ec57600080fd5b50565b6123f8816122ed565b811461240357600080fd5b5056fea264697066735822122003a6ed154551c85d1f39f9c5f8d8ee176226bd8c4c7f6e935c0b45c4d0ac80fd64736f6c63430008000033",
  "immutableReferences": {},
  "source": "// SPDX-License-Identifier: MIT\npragma solidity ^0.8.0;\n\nimport \"@openzeppelin/contracts/token/ERC20/ERC20.sol\";\nimport \"@openzeppelin/contracts/token/ERC20/extensions/ERC20Burnable.sol\";\nimport \"@openzeppelin/contracts/security/Pausable.sol\";\nimport \"@openzeppelin/contracts/access/Ownable.sol\";\n\ncontract CHENDollas is ERC20, ERC20Burnable, Pausable, Ownable {\n  uint _dripAmount;\n  uint _dripThreshold;\n\n  event Drip(address indexed to, uint amount);\n\n  constructor() ERC20(\"CHEN Dollas\", \"CHEN\") {\n    _mint(msg.sender, 50000 * 10 ** decimals());\n    _dripAmount = 1000 * 10 ** decimals();\n    _dripThreshold = 5000 * 10 ** decimals();\n  }\n\n  function pause() public onlyOwner {\n    _pause();\n  }\n\n  function unpause() public onlyOwner {\n    _unpause();\n  }\n\n  function mint(address to, uint256 amount) public onlyOwner {\n    _mint(to, amount);\n  }\n\n  function _beforeTokenTransfer(address from, address to, uint256 amount)\n    internal\n    whenNotPaused\n    override\n  {\n    super._beforeTokenTransfer(from, to, amount);\n  }\n\n  function drip() public whenNotPaused {\n    require(balanceOf(msg.sender) < _dripThreshold, \"Account already has enough\");\n\n    _mint(msg.sender, _dripAmount);\n    emit Drip(msg.sender, _dripAmount);\n  }\n}\n",
  "sourcePath": "/Users/jessechen/Documents/bank-of-chen/blockchain/contracts/CHENDollas.sol",
  "compiler": {
    "name": "solc",
    "version": "0.8.0+commit.c7dfd78e.Emscripten.clang"
  },
  "schemaVersion": "3.3.4",
  "updatedAt": "2021-04-15T09:38:40.563Z",
  "networkType": "ethereum",
  "devdoc": {
    "kind": "dev",
    "methods": {
      "allowance(address,address)": {
        "details": "See {IERC20-allowance}."
      },
      "approve(address,uint256)": {
        "details": "See {IERC20-approve}. Requirements: - `spender` cannot be the zero address."
      },
      "balanceOf(address)": {
        "details": "See {IERC20-balanceOf}."
      },
      "burn(uint256)": {
        "details": "Destroys `amount` tokens from the caller. See {ERC20-_burn}."
      },
      "burnFrom(address,uint256)": {
        "details": "Destroys `amount` tokens from `account`, deducting from the caller's allowance. See {ERC20-_burn} and {ERC20-allowance}. Requirements: - the caller must have allowance for ``accounts``'s tokens of at least `amount`."
      },
      "decimals()": {
        "details": "Returns the number of decimals used to get its user representation. For example, if `decimals` equals `2`, a balance of `505` tokens should be displayed to a user as `5,05` (`505 / 10 ** 2`). Tokens usually opt for a value of 18, imitating the relationship between Ether and Wei. This is the value {ERC20} uses, unless this function is overloaded; NOTE: This information is only used for _display_ purposes: it in no way affects any of the arithmetic of the contract, including {IERC20-balanceOf} and {IERC20-transfer}."
      },
      "decreaseAllowance(address,uint256)": {
        "details": "Atomically decreases the allowance granted to `spender` by the caller. This is an alternative to {approve} that can be used as a mitigation for problems described in {IERC20-approve}. Emits an {Approval} event indicating the updated allowance. Requirements: - `spender` cannot be the zero address. - `spender` must have allowance for the caller of at least `subtractedValue`."
      },
      "increaseAllowance(address,uint256)": {
        "details": "Atomically increases the allowance granted to `spender` by the caller. This is an alternative to {approve} that can be used as a mitigation for problems described in {IERC20-approve}. Emits an {Approval} event indicating the updated allowance. Requirements: - `spender` cannot be the zero address."
      },
      "name()": {
        "details": "Returns the name of the token."
      },
      "owner()": {
        "details": "Returns the address of the current owner."
      },
      "paused()": {
        "details": "Returns true if the contract is paused, and false otherwise."
      },
      "renounceOwnership()": {
        "details": "Leaves the contract without owner. It will not be possible to call `onlyOwner` functions anymore. Can only be called by the current owner. NOTE: Renouncing ownership will leave the contract without an owner, thereby removing any functionality that is only available to the owner."
      },
      "symbol()": {
        "details": "Returns the symbol of the token, usually a shorter version of the name."
      },
      "totalSupply()": {
        "details": "See {IERC20-totalSupply}."
      },
      "transfer(address,uint256)": {
        "details": "See {IERC20-transfer}. Requirements: - `recipient` cannot be the zero address. - the caller must have a balance of at least `amount`."
      },
      "transferFrom(address,address,uint256)": {
        "details": "See {IERC20-transferFrom}. Emits an {Approval} event indicating the updated allowance. This is not required by the EIP. See the note at the beginning of {ERC20}. Requirements: - `sender` and `recipient` cannot be the zero address. - `sender` must have a balance of at least `amount`. - the caller must have allowance for ``sender``'s tokens of at least `amount`."
      },
      "transferOwnership(address)": {
        "details": "Transfers ownership of the contract to a new account (`newOwner`). Can only be called by the current owner."
      }
    },
    "version": 1
  },
  "userdoc": {
    "kind": "user",
    "methods": {},
    "version": 1
  }
}